S017000041544D45474133325F4144393833322E737265633F
S11300000C942A000C9447000C9447000C9447006D
S11300100C9447000C9447000C9447000C94470040
S11300200C9447000C9447000C9447000C94470030
S11300300C9447000C9447000C9447000C94470020
S11300400C9447000C9447000C9447000C94470010
S11300500C94470011241FBECFE5D8E0DEBFCDBF0E
S113006010E0A0E6B0E0ECEDF1E102C005900D92E5
S1130070A639B107D9F720E0A6E9B0E001C01D9286
S1130080AA39B207E1F70E941B030C94EC080C9404
S113009000001BBA80EF8ABB15BA8ABB8EE084BB12
S11300A0089588E18AB986E880BD1BB883E089B9E0
S11300B010BC08955D9BFECF8CB908950F931F93D8
S11300C0CF93DF93FC01D62FC0E008C08F010F5FF0
S11300D01F4F80810E945A00CF5FF801CD17B0F303
S11300E0DF91CF911F910F91089520E030E006C079
S11300F0FC01E20FF31F10822F5F3F4F26173707D3
S1130100B8F30895CF92DF92EF92FF920F931F936B
S113011095B39D7F95BB91E39A95F1F7000040E07C
S1130120C12CD12C760124C095B39B7F95BB91E360
S11301309A95F1F7000095B3946095BB989B13C012
S113014021503109261B370B01E010E002C0000FDB
S1130150111F2A95E2F7012E000C220B330BC02A43
S1130160D12AE22AF32A91E39A95F1F700004F5F2E
S1130170642F70E0282F30E0220F331F220F331F2B
S1130180220F331F621773077CF285B3826085BB2D
S1130190C701B6011F910F91FF90EF90DF90CF90B0
S11301A0089595B39D7F95BB91E39A95F1F700006F
S11301B070E028C095B39B7F95BBE8E1EA95F1F721
S11301C000C021503109241B350B482F50E0FA019F
S11301D002C0F595E7952A95E2F7E0FF04C095B3D0
S11301E0986095BB03C095B3977F95BBF8E1FA95EA
S11301F0F1F700C095B3946095BB91E39A95F1F73C
S113020000007F5F472F50E0262F30E0220F331F7E
S1130210220F331F220F331F421753075CF285B39B
S1130220826085BB089564E08FEF0E94D10064E092
S11302308FEF0E94D100089520E1829FC001112414
S113024070E0660F771F660F771F660F771F682BA6
S1130250862F842B61E08B7F0E94D1000895962F16
S113026050E1859F9001112450E0440F551F440F25
S1130270551F440F551F822F842B61E0892B0E9448
S1130280D100089541E0682F80E00E942F0181E0B1
S11302900E948200862F8095881F8827881F0895D2
S11302A0CF92DF92EF92FF920F931F93CF93C82FB9
S11302B08B018C2F0E9442018823D9F341E06C2FDB
S11302C083E00E942F0182E00E94820080E090E09F
S11302D00E9480046B017C01609160007091610058
S11302E080E090E00E9480049B01AC01C701B6014C
S11302F00E940E0520E030E040E857E30E940E051E
S11303006B017C01B80180E090E00E9480049B01B5
S1130310AC01C701B6010E94E4030E945104CB0161
S1130320CF911F910F91FF90EF90DF90CF900895A0
S11303300F9330E4839FC001112470E0660F771F90
S1130340660F771F660F771F50E0440F551F440F49
S1130350551F30E0220F331F862B842B822B61E044
S1130360802B0E94D1000F910895FF920F931F9349
S1130370CF93DF93C82FF62E142FD22F40E0682F8F
S113038082E00E942F01402F6F2D80E00E941C010B
S113039040E06C2F81E00E942F0100E020E0412F1B
S11303A06D2F81E00E9498018C2F0E9442018823C6
S11303B0D9F3DF91CF911F910F91FF9008950F937F
S11303C085B3826085BB85B3846085BB0E941301BD
S11303D02FEF8FE191E0215080409040E1F700C081
S11303E0000003E020E041E061E080E00E94B5010C
S11303F02FEF8FE191E0215080409040E1F700C061
S1130400000020E041E061E081E00E94B5010F912D
S11304100895AC018BB380688BBB61E36A95F1F7F7
S113042000008BB38F7D8BBB90E020C02FE030E0C9
S1130430291B3109BA0102C0769567952A95E2F71E
S113044060FF04C02BB320642BBB03C02BB32F7BF2
S11304502BBB7BE77A95F1F72BB32F772BBB8BE77D
S11304608A95F1F72BB320682BBB9F5F9031F0F294
S11304708BB380628BBB0895AF92BF92CF92DF9211
S1130480EF92FF920F931F93CF93DF93DC01CB0185
S1130490282F392F4A2F5B2F60E070E080E090E036
S11304A000E20E94E9056894AA24A7F80F2EF6E951
S11304B0BF2EF02D0F2EF8E9CF2EF02DD12CE12CEC
S11304C0F12C00E010E00E948C05722F632F022FA4
S11304D0132F242F352F832F9927AA27BB2799273A
S11304E0C42FD0E0D262012F122F232F33271127DC
S11304F01163472F562F55277A016894F5F89363B3
S11305000E940902CE010E940902C8010E94090248
S1130510C7010E94090280E099E10E94090280E07B
S113052098E00E940902DF91CF911F910F91FF90F3
S1130530EF90DF90CF90BF90AF9008958BB380621F
S11305408BBB8BB380688BBB8FEF97E40197F1F77C
S113055000C0000080E098EF0E94090280E090EB68
S11305600E94090280E090EC0E940902089521E3B0
S11305702A95F1F700009BB39F779BBB91E39A9573
S1130580F1F700009BB39F7E9BBB90E038C02BB378
S113059020682BBB9330A8F442E050E0491B51097A
S11305A0282F30E002C0359527954A95E2F720FFC1
S11305B004C02BB320642BBB18C02BB32F7B2BBBE5
S11305C014C04AE050E0491B5109262F30E002C014
S11305D0359527954A95E2F720FF04C02BB3206494
S11305E02BBB03C02BB32F7B2BBB2BE72A95F1F737
S11305F02BB32F772BBB2BE72A95F1F79F5F9B300B
S113060030F28BB380618BBB0895CF93DF93D82FE7
S1130610C0E005C06D2F8C2F0E94B702CF5FC4309D
S1130620C8F3DF91CF9108958BB380618BBB84E0D5
S11306300E9405030895CF93DF93CDB7DEB7C45668
S1130640D1090FB6F894DEBF0FBECDBFFE013196BF
S113065084E6DF011D928A95E9F70E9449000E9411
S113066051000E949E020E9414030E94DF018FEF3A
S11306700E94050364EF71E080E090E00E943C0278
S113068060E070E080E00E945001909399008093B4
S11306909800BFEF2FE382E0B15020408040E1F7A3
S11306A000C0000060E070E081E00E94500190937F
S11306B09700809396009FEFAFE3B2E09150A04083
S11306C0B040E1F700C00000E0919600F09197007F
S11306D040919800509199009F0136952795369541
S11306E02795ABE7B4E10E947B059695879514E6C0
S11306F0189F9001199F300D1124CF01821B930B79
S11307009F938F939F013695279536952795369518
S11307102795A5ECB0E20E947B05929582958F7097
S113072089279F7089279F938F939A0136952795E0
S113073036952795ABE7B4E10E947B05969587959E
S1130740189F9001199F300D1124CA01821B930B2D
S11307509F938F939A0136952795369527953695CD
S11307602795A5ECB0E20E947B05929582958F7047
S113077089279F7089279F938F9382E690E09F93A8
S11307808F938E010F5F1F4F1F930F930E940206DA
S1130790F80101900020E9F73197BF01601B710B4C
S11307A0C8010E945E0064E670E0C8010E94750002
S11307B08FEF97E40197F1F700C000000FB6F894AB
S11307C0DEBF0FBECDBF53CF5058BB27AA270E9410
S11307D0FC030C94D4040E94C60438F00E94CD0497
S11307E020F039F49F3F19F426F40C94C3040EF45A
S11307F0E095E7FB0C94BD04E92F0E94E50458F34F
S1130800BA17620773078407950720F079F4A6F5F1
S11308100C9407050EF4E0950B2EBA2FA02D0B01B6
S1130820B90190010C01CA01A0011124FF27591B31
S113083099F0593F50F4503E68F11A16F040A22F37
S1130840232F342F4427585FF3CF469537952795A8
S1130850A795F0405395C9F77EF41F16BA0B620BA7
S1130860730B840BBAF09150A1F0FF0FBB1F661FEE
S1130870771F881FC2F70EC0BA0F621F731F841F31
S113088048F4879577956795B795F7959E3F08F057
S1130890B0CF9395880F08F09927EE0F9795879519
S11308A008950E94ED0488F09F5798F0B92F992776
S11308B0B751B0F0E1F0660F771F881F991F1AF047
S11308C0BA95C9F714C0B13091F00E940705B1E0A0
S11308D008950C940705672F782F8827B85F39F09F
S11308E0B93FCCF3869577956795B395D9F73EF4E0
S11308F090958095709561957F4F8F4F9F4F089588
S1130900E89409C097FB3EF49095809570956195A5
S11309107F4F8F4F9F4F9923A9F0F92F96E9BB275B
S11309209395F695879577956795B795F111F8CFD7
S1130930FAF4BB0F11F460FF1BC06F5F7F4F8F4F42
S11309409F4F16C0882311F096E911C0772321F038
S11309509EE8872F762F05C0662371F096E8862FD0
S113096070E060E02AF09A95660F771F881FDAF727
S1130970880F9695879597F9089597F99F6780E86A
S113098070E060E008959FEF80EC089500240A94DD
S11309901616170618060906089500240A94121656
S11309A01306140605060895092E0394000C11F489
S11309B0882352F0BB0F40F4BF2B11F460FF04C036
S11309C06F5F7F4F8F4F9F4F089557FD9058440F8F
S11309D0551F59F05F3F71F04795880F97FB991F9A
S11309E061F09F3F79F08795089512161306140657
S11309F0551FF2CF4695F1DF08C0161617061806E4
S1130A00991FF1CF86957105610508940895E894BE
S1130A10BB2766277727CB0197F908950E94210504
S1130A200C94D4040E94C60438F00E94CD0420F033
S1130A30952311F00C94BD040C94C30411240C945C
S1130A4008050E94E50470F3959FC1F3950F50E0EB
S1130A50551F629FF001729FBB27F00DB11D639F6C
S1130A60AA27F00DB11DAA1F649F6627B00DA11D12
S1130A70661F829F2227B00DA11D621F739FB00DB8
S1130A80A11D621F839FA00D611D221F749F332728
S1130A90A00D611D231F849F600D211D822F762FC1
S1130AA06A2F11249F5750409AF0F1F088234AF09E
S1130AB0EE0FFF1FBB1F661F771F881F915050400A
S1130AC0A9F79E3F510580F00C94BD040C940805D1
S1130AD05F3FE4F3983ED4F3869577956795B79591
S1130AE0F795E7959F5FC1F7FE2B880F911D9695AB
S1130AF0879597F90895A29FB001B39FC001A39F62
S1130B00700D811D1124911DB29F700D811D112442
S1130B10911D0895689401C0E8948F929F92CF9399
S1130B20DF930E949805DF91CF919F908F90089555
S1130B3088249924F401E401B0E49F93AA279A1528
S1130B408B049C04ED05FE05CF05D007A10798F49E
S1130B50AD2FDC2FCF2FFE2FE92D982C892E982F27
S1130B60872F762F652F542F432F322F2227B850EB
S1130B7031F7BF9127C01B2EBF91BB27220F331F14
S1130B80441F551F661F771F881F991F881C991CB7
S1130B90EE1FFF1FCC1FDD1FAA1FBB1F8A149B045F
S1130BA0EC05FD05CE05DF05A007B10748F08A185E
S1130BB09B08EC09FD09CE09DF09A00BB10B2160EC
S1130BC01A94E1F62EF49401AF01BE01CD01000C9C
S1130BD008950F93083090F0982F872F762F652F64
S1130BE0542F432F322F22270850F4CF220F331FC4
S1130BF0441F551F661F771F881F991F0A95B2F758
S1130C000F910895AEE0B0E0E8E0F6E00C94C3087C
S1130C100D891E8986E08C831A8309838FEF9FE7F1
S1130C209E838D83AE01475E5F4F6F89788DCE01C1
S1130C3001960E942406EF81F885E00FF11F1082CF
S1130C402E96E4E00C94DF08ABE0B0E0EAE2F6E0D4
S1130C500C94B5086C017B018A01FC011782168291
S1130C60838181FFCCC1CE0101963C01F6019381C1
S1130C70F70193FD859193FF81917F01882309F406
S1130C80BAC1853239F493FD859193FF81917F0137
S1130C90853229F4B60190E00E941B08E7CF912C1D
S1130CA0212C312CFFE1F315D8F08B3279F038F494
S1130CB0803279F08332A1F4232D20611DC08D325E
S1130CC061F0803369F4232D216016C0832D826086
S1130CD0382EE32DE4603E2E2AC0F32DF8601DC0AB
S1130CE037FC2DC020ED280F2A3040F08E32B9F4A5
S1130CF036FC81C1232D2064322E19C036FE06C075
S1130D008AE0989E200D1124922E11C0EAE02E9EB6
S1130D10200D1124222EF32DF0623F2E08C08C36B4
S1130D2021F4832D8068382E02C0883641F4F701FF
S1130D3093FD859193FF81917F018111B3CF982F0A
S1130D409F7D9554933028F40C5F1F4F9FE3998344
S1130D500DC0833631F0833771F0833509F059C003
S1130D6021C0F801808189830E5F1F4F88248394FA
S1130D70912C530113C02801F2E04F0E511CF801CD
S1130D80A080B18036FE03C0692D70E002C06FEF11
S1130D907FEFC5010E9410084C018201F32DFF77FB
S1130DA03F2E16C0280122E0420E511CF801A080FB
S1130DB0B18036FE03C0692D70E002C06FEF7FEF93
S1130DC0C5010E9405084C01F32DF0683F2E8201F5
S1130DD033FC1BC0822D90E088169906B0F4B6014E
S1130DE080E290E00E941B082A94F4CFF50137FCBE
S1130DF0859137FE81915F01B60190E00E941B0846
S1130E0021102A9421E0821A91088114910471F727
S1130E10E8C0843611F0893641F5F80137FE07C081
S1130E2060817181828193810C5F1F4F08C0608152
S1130E307181072E000C880B990B0E5F1F4FF32D49
S1130E40FF763F2E97FF09C0909580957095619528
S1130E507F4F8F4F9F4FF0683F2E2AE030E0A30171
S1130E600E945708882E861845C0853731F4232DF3
S1130E702F7EB22E2AE030E025C0932D997FB92E23
S1130E808F36C1F018F4883579F0B5C0803719F081
S1130E90883721F0B0C0E92FE061BE2EB4FE0DC04A
S1130EA0FB2DF460BF2E09C034FE0AC0292F266032
S1130EB0B22E06C028E030E005C020E130E002C0D8
S1130EC020E132E0F801B7FE07C0608171818281C0
S1130ED093810C5F1F4F06C06081718180E090E0B8
S1130EE00E5F1F4FA3010E945708882E8618FB2D02
S1130EF0FF773F2E36FE0DC0232D2E7FA22E8914A0
S1130F0058F434FE0BC032FC09C0832D8E7EA82E0B
S1130F1005C0B82CA32C03C0B82C01C0B92CA4FE66
S1130F200FC0FE01E80DF11D8081803321F49A2D5C
S1130F30997EA92E09C0A2FE06C0B394B39404C03E
S1130F408A2D867809F0B394A3FC11C0A0FE06C0D4
S1130F50B21488F4280C922C9B180EC0B21460F4BE
S1130F60B60180E290E00E941B08B394F7CFB2145C
S1130F7018F42B1802C0982C212CA4FE10C0B60122
S1130F8080E390E00E941B08A2FE17C0A1FC03C0EE
S1130F9088E790E002C088E590E0B6010CC08A2D95
S1130FA0867859F0A1FE02C08BE201C080E2A7FC62
S1130FB08DE2B60190E00E941B08891438F4B60152
S1130FC080E390E00E941B089A94F7CF8A94F3017F
S1130FD0E80DF11D8081B60190E00E941B0881108C
S1130FE0F5CF222009F442CEB60180E290E00E94BF
S1130FF01B082A94F6CFF6018681978102C08FEFF1
S11310009FEF2B96E2E10C94D108FC01059061500E
S113101070400110D8F7809590958E0F9F1F08950A
S1131020FC016150704001900110D8F780959095B3
S11310308E0F9F1F08950F931F93CF93DF93FB0190
S1131040238121FD03C08FEF9FEF2CC022FF16C028
S113105046815781248135814217530744F4A08186
S1131060B1819D012F5F3F4F318320838C93268173
S113107037812F5F3F4F3783268314C08B01EC01E8
S1131080FB010084F185E02D0995892BE1F6D80157
S113109016968D919C911797019617969C938E9313
S11310A01697CE01DF91CF911F910F910895FA0108
S11310B0AA27283051F1203181F1E8946F936E7F93
S11310C06E5F7F4F8F4F9F4FAF4FB1E03ED0B4E084
S11310D03CD0670F781F891F9A1FA11D680F791FC5
S11310E08A1F911DA11D6A0F711D811D911DA11DD6
S11310F020D009F468943F912AE0269F11243019E6
S1131100305D3193DEF6CF010895462F4770405D80
S11311104193B3E00FD0C9F7F6CF462F4F70405D2F
S11311204A3318F0495D31FD4052419302D0A9F78A
S1131130EACFB4E0A6959795879577956795BA9584
S1131140C9F700976105710508959B01AC010A2E4A
S113115006945795479537952795BA95C9F7620F21
S1131160731F841F951FA01D08952F923F924F92C5
S11311705F926F927F928F929F92AF92BF92CF9223
S1131180DF92EF92FF920F931F93CF93DF93CDB72C
S1131190DEB7CA1BDB0B0FB6F894DEBF0FBECDBFA4
S11311A009942A88398848885F846E847D848C8475
S11311B09B84AA84B984C884DF80EE80FD800C817E
S11311C01B81AA81B981CE0FD11D0FB6F894DEBF61
S10F11D00FBECDBFED010895F894FFCFD1
S11311DCE40C4368616E6E656C3120414443203AE3
S11311EC2025642E25645B565D202C204368616E9B
S11311FC6E656C3220414443203A2025642E2564CC
S109120C5B565D200A00A0
S9030000FC
