S017000041544D45474133325F4144393833322E737265633F
S11300000C942A000C943F000C943F000C943F0085
S11300100C943F000C943F000C943F000C943F0060
S11300200C943F000C943F000C943F000C943F0050
S11300300C943F000C943F000C943F000C943F0040
S11300400C943F000C943F000C943F000C943F0030
S11300500C943F0011241FBECFE5D8E0DEBFCDBF16
S113006010E0A0E6B0E0EEE8F4E002C005900D92E6
S1130070A437B107D9F70E9488010C9445020C9467
S113008000001BBA80EF8ABB089588E18AB986E82C
S113009080BD1BB883E089B910BC08955D9BFECF79
S11300A08CB908950F931F93CF93DF93FC01D62F40
S11300B0C0E008C08F010F5F1F4F80810E944E0077
S11300C0CF5FF801CD17B0F3DF91CF911F910F915E
S11300D0089520E030E006C0FC01E20FF31F108217
S11300E02F5F3F4F26173707B8F30895AC018BB342
S11300F080688BBB61E36A95F1F700008BB38F7D59
S11301008BBB90E020C02FE030E0291B3109BA01FD
S113011002C0769567952A95E2F760FF04C02BB379
S113012020642BBB03C02BB32F7B2BBB7BE77A95BF
S1130130F1F72BB32F772BBB8BE78A95F1F72BB312
S113014020682BBB9F5F9031F0F28BB380628BBB36
S11301500895AF92BF92CF92DF92EF92FF920F93E6
S11301601F93CF93DF93DC01CB01282F392F4A2F24
S11301705B2F60E070E080E090E000E20E942C02DF
S11301806894AA24A7F80F2EF6E9BF2EF02D0F2E9F
S1130190F8E9CF2EF02DD12CE12CF12C00E010E069
S11301A00E94CF01722F632F022F132F242F352F7C
S11301B0832F9927AA27BB279927C42FD0E0D2627F
S11301C0012F122F232F332711271163472F562F67
S11301D055277A016894F5F893630E947600CE015E
S11301E00E947600C8010E947600C7010E94760032
S11301F080E099E10E94760080E098E00E94760019
S1130200DF91CF911F910F91FF90EF90DF90CF90EE
S1130210BF90AF9008958BB380628BBB8BB3806823
S11302208BBB8FEF97E40197F1F700C0000080E0EB
S113023098EF0E94760080E090EB0E94760080E0C8
S113024090EC0E947600089521E32A95F1F70000CE
S11302509BB39F779BBB91E39A95F1F700009BB307
S11302609F7E9BBB90E038C02BB320682BBB9330A0
S1130270A8F442E050E0491B5109282F30E002C0A5
S1130280359527954A95E2F720FF04C02BB32064E7
S11302902BBB18C02BB32F7B2BBB14C04AE050E000
S11302A0491B5109262F30E002C0359527954A9500
S11302B0E2F720FF04C02BB320642BBB03C02BB395
S11302C02F7B2BBB2BE72A95F1F72BB32F772BBB77
S11302D02BE72A95F1F79F5F9B3030F28BB3806157
S11302E08BBB0895CF93DF93D82FC0E005C06D2F4B
S11302F08C2F0E942401CF5FC430C8F3DF91CF91CB
S113030008958BB380618BBB84E00E9472010895D1
S1130310CF93DF93CDB7DEB7C456D1090FB6F894A7
S1130320DEBF0FBECDBFFE01319684E6DF011D9214
S11303308A95E9F70E9441000E9445000E940B0142
S11303400E9481018FEF0E94720164EF71E080E0EE
S113035090E00E94A90084E1E0E6F0E08E010F5FE6
S11303601F4FD80101900D928A95E1F7F801019091
S11303700020E9F73197BF01601B710BC8010E948F
S1130380520064E670E0C8010E9469008FEF97E4B0
S11303900197F1F700C00000D5CF689401C0E8943C
S11303A08F929F92CF93DF930E94DB01DF91CF91D5
S11303B09F908F90089588249924F401E401B0E477
S11303C09F93AA279A158B049C04ED05FE05CF057F
S11303D0D007A10798F4AD2FDC2FCF2FFE2FE92DE6
S11303E0982C892E982F872F762F652F542F432FE3
S11303F0322F2227B85031F7BF9127C01B2EBF914F
S1130400BB27220F331F441F551F661F771F881FEA
S1130410991F881C991CEE1FFF1FCC1FDD1FAA1FEC
S1130420BB1F8A149B04EC05FD05CE05DF05A00760
S1130430B10748F08A189B08EC09FD09CE09DF09C9
S1130440A00BB10B21601A94E1F62EF49401AF01D4
S1130450BE01CD01000C08950F93083090F0982F41
S1130460872F762F652F542F432F322F22270850A2
S1130470F4CF220F331F441F551F661F771F881F99
S1110480991F0A95B2F70F910895F894FFCFD3
S113048E3C55617274205072696E74205465737495
S107049E3E200A00EE
S9030000FC
